:03000000020800F3
:0C080000787FE4F6D8FD75810F020847F0
:030B3700010F0AA1
:080A6F00C2B3C2B2C2B1C2B0B1
:0A0A7700E4F50AF50BE4F50CF50DAB
:0B0A8100850F0E12090DE50FB50E26C3
:100A8C00050DE50D7002050CC3947DE50C64809496
:100A9C008040E2050BE50B7002050AC3947DE50A64
:060AAC006480948040CA42
:010AB2002221
:10090D007F0AC2A7D2A6D2A5D2A3D2A2D2A1D2A02B
:10091D0020A305750F31801620A205750F32800EAC
:10092D0020A105750F33800620A003750F34EF64E9
:10093D000A7024D2A7C2A6D2A520A305750F3580B3
:10094D001620A205750F36800E20A105750F378074
:10095D000620A003750F38BF0A14D2A7D2A6C2A5D0
:10096D0020A305750F39800620A203750F30EF64A3
:01097D000A6F
:01097E002256
:10097F00E50FB4300475803F22E50FB43104758064
:10098F000622E50FB4320475805B22E50FB4330401
:10099F0075804F22E50FB4340475806622E50FB4DD
:1009AF00350475806D22E50FB4360475807D22E520
:1009BF000FB4370475800722E50FB4380475807FB4
:0A09CF0022E50FB4390375806F2292
:1009D900E50FB43110D2B0C2B3C2B2C2B1120A77B4
:1009E900E50F643122E50FB43210D2B1C2B3C2B2FD
:1009F900C2B0120A77E50F643222E50FB4330CD284
:100A0900B2C2B3120A73E50F643322E50FB4340B93
:0C0A1900D2B3C2B1C2B2C2B0120A77223E
:100A2500E50F64357043C2B3C2B2C2B1D2B0120A87
:100A350077E50F64357032C2B3C2B2C2B0D2B1121B
:100A45000A77E50F64357021C2B3C2B0C2B1D2B224
:100A5500120A77E50FB43511C2B0C2B2C2B1D2B332
:0A0A6500120A77E50F643560B7222E
:100AE000E50F64367021C2B2C2B0D2B3D2B1120ADD
:100AF00077E50FB43611D2B2D2B0C2B3C2B1120A86
:080B000077E50F643660D9228D
:050AB300E50FB4372738
:100AB800E4F508F509C3E5099410E5086480948015
:100AC80050E98509B0120A77E50FB4370A0509E538
:070AD8000970E2050880DE51
:010ADF0022F4
:100B0800E50F64387019D2B3D2B2D2B1D2B0120A9A
:100B180077E50FB43809120A6FE50F643860E122EF
:0F0B2800E50FB43909120A6FE50F643960F22244
:10088C00C2B3C2B2C2B1C2B0E4F580E50FB40A057E
:10089C0012090D80F612097FE50F24D0B40A00501E
:1008AC00EA9008BB75F003A4C58325F0C5837302D9
:1008BC0008FD0208D90208DB0208DD0208DF020885
:1008CC00E40208E90208EE0208F30208F88004804A
:1008DC000280001209D980B3120A2580AE120AE0F8
:1008EC0080A9120AB380A4120B08809F120B2880D7
:1008FC009A750F0AC2B3C2B2C2B1C2B075803F8042
:01090C008A60
:10080C0002088CE493A3F8E493A34003F68001F26E
:10081C0008DFF48029E493A3F85407240CC8C333ED
:10082C00C4540F4420C8834004F456800146F6DFBC
:10083C00E4800B0102040810204080900B37E47E0A
:10084C00019360BCA3FF543F30E509541FFEE493B1
:10085C00A360010ECF54C025E060A840B8E493A378
:10086C00FAE493A3F8E493A3C8C582C8CAC583CAA3
:10087C00F0A3C8C582C8CAC583CADFE9DEE780BE5B
:010B3A0000BA
:00000001FF
