:03000000020800F3
:0C080000787FE4F6D8FD75810B020847F4
:040A54000208000094
:10091700E4FBFAC3EB94F4EA6480948150389000C6
:1009270000C3E58294F4E58364809481502120A379
:100937001B0509E50970020508AE08FF7C007D0468
:1009470012088C8C088D0920A30C80FBA380D20B86
:06095700BB00010A80BD97
:01095D002277
:10095E00E50945087040C2B3C2B2C2B1D2B01209A5
:10096E0017E5094508702FC2B3C2B2C2B0D2B11298
:10097E000917E5094508701EC2B3C2B0C2B1D2B2A2
:10098E00120917E5094508700DC2B0C2B2C2B1D244
:07099E00B312091780BA2211
:0809A500E50964014508702911
:1009AD00F50AF50BC3E50B9410E50A6480948050AD
:1009BD00E7850BB0120917E50964014508700A05B2
:0909CD000BE50B70DF050A80DB6D
:0109D60022FE
:100A0200E509640245087020C2B2C2B0D2B3D2B1C5
:100A1200120917E50964024508700DD2B2D2B0C2BC
:090A2200B3C2B112091780D822F9
:100A2B00E509640345087020D2B3D2B2D2B1D2B07B
:100A3B00120917E50964034508700DC2B3C2B2C2AF
:090A4B00B1C2B012091780D822D3
:1009D700C2A7D2A3E50870FCE50914600F146011E3
:1009E700146013240370ED12095E80E81209A580D4
:0B09F700E3120A0280DE120A2B80D9F6
:10080C000209D7E493A3F8E493A34003F68001F222
:10081C0008DFF48029E493A3F85407240CC8C333ED
:10082C00C4540F4420C8834004F456800146F6DFBC
:10083C00E4800B0102040810204080900A54E47EEE
:10084C00019360BCA3FF543F30E509541FFEE493B1
:10085C00A360010ECF54C025E060A840B8E493A378
:10086C00FAE493A3F8E493A3C8C582C8CAC583CAA3
:10087C00F0A3C8C582C8CAC583CADFE9DEE780BE5B
:010A5800009D
:10088C00C2D5EC30E709B2D5E4C39DFDE49CFCEE87
:10089C0030E715B2D5E4C39FFFE49EFE1208C2C335
:1008AC00E49DFDE49CFC80031208C230D507C3E430
:0608BC009FFFE49EFE22F6
:1008C200BC000BBE0029EF8DF084FFADF022E4CC1A
:1008D200F875F008EF2FFFEE33FEEC33FCEE9DECE3
:1008E200984005FCEE9DFE0FD5F0E9E4CEFD22ED29
:1008F200F8F5F0EE8420D21CFEADF075F008EF2F73
:10090200FFED33FD4007985006D5F0F222C398FD63
:050912000FD5F0EA2200
:00000001FF
